:020000040800F2
:100000005005002019220008E5200008E72000081C
:10001000E9200008EB200008ED20000800000000A7
:10002000000000000000000000000000EF200008B9
:10003000F120000800000000F3200008F52000086F
:100040004122000845220008492200084D220008EC
:100050005122000855220008592200085D2200089C
:100060006122000865220008692200086D2200084C
:100070007122000875220008792200087D220008FC
:100080008122000885220008892200088D220008AC
:1000900091220008F9200008952200089922000802
:1000A0009D220008A1220008A5220008A92200081C
:1000B000AD220008B1220008B5220008B9220008CC
:1000C000BD220008C1220008C5220008C92200087C
:1000D000CD220008D1220008D5220008D92200082C
:1000E000FF200008DD220008E1220008E5220008C8
:1000F000E9220008ED220008F1220008F52200089C
:1001000000000000F922000800000000FD220008A5
:10011000012300080523000807210008092300081F
:100120000D230008112300081523000819230008D7
:100130001D2300080000000000000000212300082B
:10014000252300082923000800000000000000000B
:10015000000000000000000000000000000000009F
:100160000000000000000000000000002D23000837
:100170003123000835230008392300083D230008F7
:100180004123000845230008000000000000000093
:100190000000000000000000492300084D23000873
:1001A0000000000000000000512300085523000853
:1001B000592300085D230008612300086523000817
:1001C000692300086D2300087123000875230008C7
:1001D000792300087D2300082DE9F84304006DD041
:1001E0002078DFF8E865C10717D500F0D0F90CD109
:1001F00001F0030103290AD06068B0F5803F2AD1DD
:10020000306840F48030306037E00828F4D130683E
:10021000810302D56068002850D02178880759D51D
:1002200000F0B5F943D101F00301022941D0E068A3
:1002300000286AD0316841F48071316000F0E2FA40
:100240000546306841055DD400F0DCFA401B032808
:10025000F7D3032091E1B0F5A02F306806D140F428
:1002600080203060316841F4803105E020F4803036
:100270003060316821F480213160606858B100F04D
:10028000C1FA054630688103C7D400F0BBFA401BB1
:100290006528F7D3DDE700F0B5FA0546306881033D
:1002A000BBD500F0AFFA401B6528F7D3D1E704288F
:1002B000BDD13068410503D5E068002800F05A81BF
:1002C00000F05DF9DFF81005006800F0A1FA0028E1
:1002D00040F050812078DFF80475010734D560695B
:1002E0000028786821D040F00100786000F08AFA98
:1002F00005467868810727D400F084FA401B03285C
:10030000F7D3A6E700F03BF9E4E7306820F480700B
:10031000306000F077FA054630684105DAD500F024
:1003200071FA401B0328F7D393E740084000786038
:1003300000F068FA05467868810705D500F062FA92
:10034000401B0328F7D384E72078410763D5B06DBD
:100350000025C10009D4B06D40F08050B065012582
:10036000B06D00F0805000900098DFF87484D8F8E9
:100370000000C10513D4D8F8000040F48070C8F81C
:10038000000000F03FFA8146D8F80000C10506D40D
:1003900000F038FAA0EB09000328F5D359E7A0686C
:1003A000012804D1386840F00100386010E00528C9
:1003B000386806D140F004003860396841F0010126
:1003C00005E0400840003860396821F004013960D8
:1003D000A06841F2893860B100F014FA81463868AB
:1003E000810713D400F00EFAA0EB09004045F6D3C4
:1003F0002FE700F007FA81463868810706D500F03C
:1004000001FAA0EB09004045F6D322E71DB1B06D1B
:1004100020F08050B0652078810621D5A0690028A1
:10042000B8680ED040F00100B86000F0EBF9054666
:10043000B868810714D400F0E5F9401B0328F7D30E
:1004400007E740084000B86000F0DCF90546B868EE
:10045000810705D500F0D6F9401B0328F7D3F8E64D
:10046000E069002800F08880B16801F00C010C29D7
:1004700055D00228306820F0807030603AD100F00A
:10048000C1F905463068810105D500F0BBF9401B74
:100490000328F7D3DDE6F068DFF84813226A084046
:1004A000616A1043491E40EA0110226BA16A52089A
:1004B00040EA0120616B521E490840EA4250491E41
:1004C00040EA4160E16A40EAC160F060306840F0B3
:1004D00080703060F16841F08071F16000F092F955
:1004E00004463068810147D400F08CF9001B0328D2
:1004F000F7D3AEE6F168DFF8F00289088900F16011
:10050000F1680140F16000F07DF904463068810136
:1005100032D500F077F9001B0328F7D399E60128BC
:1005200028D0F068226A00F00301914201BF00F078
:10053000F001626A521EB1EB021F1BD1A26A00F4E5
:10054000FE41B1EB022F02BF00F07841E26AB1EB4D
:10055000C26F0FD1226B520800F4C001521EB1EBE2
:10056000425F07D1616B490800F0C060491EB0EBE3
:10057000416F01D0012000E00020BDE8F2837068E7
:10058000216920F0FE4040EA016070607047B06869
:10059000F16800F00C000C2870472DE9F047044684
:1005A0000026002C6CD0DFF844723868894600F0D1
:1005B0000F00484506D200F0C0F8386800F00F0080
:1005C00048455DD12168DFF80452C80741F28938F7
:1005D00058D56068DFF818A2032827D1286882015F
:1005E0004ED5EA68E868C0F30310401C02F003022D
:1005F000032A0CBFDFF8FC21DFF8D821B2FBF0F2B0
:10060000E868C0F306204243E868C0F34160401C3C
:100610004000B2FBF0F0504518D3AA6812F0F00F7A
:100620000DD0890712D5A06880B908E00228286893
:1006300024D1810324D500F086F8504506D3A8685C
:1006400020F0F00040F08000A8608026A968606873
:10065000890840EA8101A96000F0D4F88246A868C0
:10066000616800F00C00B0EB810F0BD000F0CAF80D
:10067000A0EB0A004045F2D303205CE04105DAD448
:10068000012058E02068810715D5400703D5A968E7
:1006900041F4E061A9602078010705D5A86820F43D
:1006A000605040F4E060A860A968A06821F0F00103
:1006B0000143A96005E0802E03D1A86820F0F00076
:1006C000A860386800F00F0081450FD200F035F8BF
:1006D00000F098F80646386800F00F00484505D04D
:1006E00000F090F8801B4045F5D3C5E7207841071E
:1006F00005D5AA68E06822F4E0620243AA60217886
:10070000080706D5A968206921F4605141EAC001B3
:10071000A96000F018F8AA683749C2F30312895C8F
:100720002B4A01F01F01C8401060BDE8F0472A487D
:10073000006800F06DB8BDE8F0873968090949EA3A
:100740000111396070472D49086800F00C00042839
:1007500001D120487047086800F00C00082801D13A
:1007600024487047086800F00C000C2818D14A682B
:100770004868C0F30310401C02F00302032A0CBFB8
:100780001C4A144AB2FBF0F24868C0F30620424308
:100790004868C0F34160401C4000B2FBF0F0704775
:1007A000002070470A48154A006813681449C3F3CB
:1007B000022206E00648114A006813681049C3F394
:1007C000C222895C01F01F01C8407047001002403E
:1007D0000C0000200024F4000400002090100240CF
:1007E000007000400C809F01FFFFEEFE00200240E1
:1007F00001B4C40400366E01A421000808100240B0
:100800003822000801480068704700BF000000203F
:1008100070B50E4E0446B0680025A0B14FF47A7151
:100820000B4AB1FBF0F11068B0FBF1F000F055F8A5
:1008300048B9102C07D2002221464FF0FF3000F0BB
:1008400023F8746000E00125284670BD00000020F8
:100850000C0000200901020002D42A48815470478C
:10086000294B02F00F021A4402F8041C7047274B70
:1008700019684FF6FF020002114000F4E0600843DF
:10088000234908431860704770B5204B1C68C4F3B7
:1008900002230124C3F10705052D2EBF0F2504FAFD
:1008A00005F56D1E1E1D072E34BF0023DB1E2940DB
:1008B000994004FA03F3BDE870405B1E1A401143EF
:1008C000C8E70000010007D4012200F01F01114B0E
:1008D0008A40400943F82020704710B5401EB0F10F
:1008E000807F01D3012010BD0B4C60600F214FF0C1
:1008F000FF30FFF7AFFF0021A1600720206000203C
:1009000010BD000000E400E018ED00E00CED00E098
:100910000000FA0500E100E010E000E038B5040056
:1009200009D004F18005696809B900F01EF800F0EB
:1009300021F8012801D1012032BDA06A08B100F0E0
:100940002AF800F00AF821F02A01FFE7816000F0A0
:100950001BF8BDE8324000F0CCB92068416821F4B2
:1009600090414160206881687047002028702046CF
:1009700000F097BA2421696020680268520852008A
:100980000260204600F00AB82068016841F00101C9
:10099000016020467047204600F048B9F8B504468B
:1009A000DFF830042268DFF830E41368A168DFF86C
:1009B0002C74034020690B4361690343E0690B43D6
:1009C0000343136000255168E06821F4405101435E
:1009D0005160A36994498A421CBF206A0343966808
:1009E000DFF8FC030640334393600FF21046D36AEE
:1009F000606A1B0940EA0313D3627245DFF8E4031F
:100A00004FF400433FD13F6807F00307032F48D856
:100A1000DFE807F0028A799E4FF0010CE169B1F539
:100A2000004F4FF6F07740F0C680BCF1000F0FD0BA
:100A3000BCF1010F00F0B780BCF1020F0CD0BCF18B
:100A4000040F00F0B380BCF1080F00F0B280DFE0CB
:100A5000FFF7A8FE002815D0626A616836F81230E8
:100A6000B0FBF3F04A0802EB4002B2FBF1F080B2B7
:100A7000A0F11001B942EAD20740C0F34200074397
:100A80002068C760C5E0DFF860C362452CD13F68CD
:100A900017F00C076ED0042F46D0082F33D00C2F40
:100AA00056D04FF0100C8A42B8D1BCF1000F09D0DB
:100AB000BCF1020F0AD0BCF1040F5DD0BCF1080FED
:100AC0005DD0A5E0FFF76EFE0028DBD0616A36F846
:100AD0001120B0FBF2F6626802EB42018E4202D3B3
:100AE0001303B3424DD293E0DFF800C362450DD14A
:100AF0003F6817F030073DD0102F15D0202F02D0BF
:100B0000302F25D0CDE74FF0020CCCE7DFF8E0C264
:100B100062450CD13F6817F0C0072BD0402F03D09F
:100B2000802FF0D0C02FECE74FF0040CBBE7DFF8CC
:100B3000C4C262450FD13F6817F440771AD0B7F5A9
:100B4000807FF1D0B7F5007FDDD0B7F5407FA8D129
:100B50004FF0080CA7E78A42A3D13F6817F440671B
:100B600008D0B7F5806FDFD0B7F5006FCBD0B7F501
:100B7000406FC6E7AC4696E7FFF7E5FDA4E71846E9
:100B8000A4E75008002110EB062051EB166100236A
:100B900000F0E2F9A0F54076DFF85C72BE4237D291
:100BA0002168C86035E0FFF705FE53E7FFF7CBFD8E
:100BB00050E7184650E7BCF1000F0CD0BCF1010F14
:100BC0001ED0BCF1020F09D0BCF1040F1BD0BCF148
:100BD000080F1BD01CE0FFF7E5FDD0B1626A36F8C4
:100BE00012306168B0FBF3F000EB5100B0FBF1F0A4
:100BF00080B2A0F11001B9420AD22268D06008E0A8
:100C0000FFF7D8FDE9E7FFF79EFDE6E71846E5E7C1
:100C1000012504F1680001210023418001808360E7
:100C2000C3602846F2BD00000080004090F8281004
:100C3000CA0706D502685368C16A23F400330B4320
:100C4000536090F828108A0706D502685368016B34
:100C500023F480330B43536090F828104A0706D5DD
:100C600002685368416B23F480230B43536090F870
:100C700028100A0706D502685368816B23F40043E5
:100C80000B43536090F82810CA0606D50268936893
:100C9000C16B23F480530B43936090F828108A06AD
:100CA00006D502689368016C23F400530B439360EC
:100CB00090F828104A0610D502685368416C23F456
:100CC00080130B435360436CB3F5801F05D1536809
:100CD000816C23F4C0030B43536090F828100A067C
:100CE00006D501684A68C06C22F4002202434A60BB
:100CF0007047F8B5044604F180050020E8606FF005
:100D00007E47FFF77FFD0646206801680A0708D581
:100D10000097334600224FF40011204600F017F8E8
:100D200060B9206801684A070AD500973346002257
:100D30004FF48001204600F00AF808B10320F2BD0C
:100D400020206860A8600020E0662870F2BD2DE9D0
:100D5000F041069C05460E4690461F462868C1692C
:100D60003140B1420CBF01200020404520D114F198
:100D7000010FF3D0FFF746FDC01B844200D334B906
:100D800000F018F8002101700320BDE8F081286808
:100D900001684A07E2D5C1690805DFD54FF4006153
:100DA0002A681162002200F005F8C1600270EBE7CA
:100DB0000020EAE72868016821F4D0710160286802
:100DC000816849084900816005F180002021416067
:100DD00081607047F369FFCF0038014088100240FE
:100DE000FFF4FF110024F4000044004000480040DC
:100DF000004C00400050004000FD0F0001000200C8
:100E00000400060008000A000C001000200040004A
:100E1000800000014A4882B0816841F00101816090
:100E2000816801F0010100910099026842F080524E
:100E30000260006800F080500090009802B000F05E
:100E40006AB910B586B000F05AF821683D48814271
:100E500025D13D48C16841F00071C160C16801F011
:100E6000007100910099026842F0020202604FF4A2
:100E70004071006800F002000090022200983348A0
:100E800000F037F80921059101A900F055F9002279
:100E900000211520FFF7F8FC1520FFF713FD06B021
:100EA00010BD10B586B000F02AF8216828488142AC
:100EB0001DD12548016941F001010161016901F07D
:100EC000010100910099026842F0010202600C21C8
:100ED000006800F0010000900222009800F009F87C
:100EE0004FF090400C21059101A900F025F906B0C2
:100EF00010BD0191029200210391049170470446B4
:100F00001422002101A800F001BA006811498842AA
:100F100000D0704780B50A48026842F010020260B3
:100F20000022006800F01000009000210098362098
:100F3000FFF7AAFCBDE802403620FFF7C3BC000063
:100F400058100240006400404C1002400004004869
:100F50000080004000100040D3BBD9B1B2F5803F03
:100F60005BD2022A1ED98C46B1FBF2F102FB11C3FF
:100F70001B0443EA1043B3FBF2FC02FB1C3380B2B8
:100F800040EA0343B3FBF2F002FB103240EA0C40AC
:100F900000237047022A05D98446B0FBF2F002FB19
:100FA00010C270474AB105D100F0010249085FEA5A
:100FB0003000704700220023704700F0B1B90B00E9
:100FC0000200002100207047F7D300220023704761
:100FD000904271EB030CF2D370B5B1FA81F4B3FA1D
:100FE00083F52C1BA340C4F1200532FA05F63343E8
:100FF000A2405FF00046E64002E05B085FEA320292
:10100000841A71EB030524BF204629467641F4D3A8
:1010100002000B003000002170BD70B5B1FA81F400
:10102000B2FA82F5C4F120046419B4F12006DAD3CF
:10103000B2405FF00044F440002502E052085FEA4D
:101040003303C61A71EB020E24BF30467146644169
:101050006D41F3D302000B002000290070BD0EE0AB
:1010600002684368024408305FEAC37C44BF4B44D3
:101070005B1E52F804CB43F804CB091FF9D150F89A
:10108000041B0029ECD1704710B53222DFF89C30E8
:10109000DFF89440DFF88C1048B900F01EF820F417
:1010A0008070206017D100F01FF80CD413E0B0F569
:1010B000007F0AD100F011F840F4807020600AD15E
:1010C00000F012F807D5032010BD0A6822F4C062B0
:1010D00042F480620A60002010BD086800F4C0601D
:1010E000B0F5806F206870470C6824F4C06444F445
:1010F00000740C601868DFF838304243B2FBF3F03C
:10110000401C00E0401E4A69530501D50028F9D172
:101110004869410570470748016841F48041016012
:101120007047000000700040807000400C000020FC
:1011300040420F00087000402DE9F84F00276A4A2E
:101140006A4B4FF00F0805460E4634E0684CA54246
:1011500014BF062405248C40664944EA0E0441F875
:101160002C40C143146801EA040C7468E40348BFCE
:1011700040EA0C0CC2F800C0546801EA040C746820
:10118000A40348BF40EA0C0CC2F804C0946801EA0A
:10119000040C7468E40248BF40EA0C0CC2F808C0B2
:1011A000D46801EA040C7168890248BF40EA0C0C5B
:1011B000C2F80CC07F1C316831FA07F000F085805E
:1011C0000124BC4014EA0100F4D04FEA470C03218B
:1011D00001FA0CF16FEA010E7168012918BF0229AA
:1011E00003D0112918BF122912D1A968D6F80C9082
:1011F0000EEA010109FA0CF949EA0101A9606968DE
:1012000021EA04047168C1F30011B9400C436C6019
:10121000E968B4680EEA010104FA0CF42143E960BC
:10122000B9007468022C18BF122C12D1FC0805EB0F
:10123000840401F01C09D4F820A008FA09FB2AEA6A
:101240000B0AD6F810B00BFA09F949EA0A09C4F8F2
:1012500020902C680EEA040E347904F0030404FA9A
:101260000CF444EA0E042C607468E400A2D51C68F7
:1012700044F001041C604FEA970C1C6804F0010460
:10128000009401F00C01009C1A4C54F82C4008FA10
:1012900001FE24EA0E0EB5F1904F08BF002413D0D2
:1012A000154CA54208BF01240ED0144CA54208BF1E
:1012B000022409D0124CA54208BF032404D0114CCB
:1012C000A5427FF443AF042445E7BDE8F18F0AB19E
:1012D00081617047816270470B4A136803421CBFEB
:1012E000106000F01EB8704700040140601002401A
:1012F00000140048080001400004004800080048AD
:10130000000C0048001000481404014010B50446C9
:1013100010460A460146204600F004F8204610BD5B
:101320007047704762F30F2262F31F42401810F0BB
:10133000030308D0C91A1FD3DB0748BF00F8012DEB
:1013400028BF20F8022D130030B41446154610397A
:1013500028BF20E93C00FAD8490728BF20E90C0043
:1013600048BF40F8042D890028BF20F8022D48BF4F
:1013700000F8012D30BC7047C91818BF00F8012DC6
:10138000CB0728BF00F8012D7047000070B504009E
:101390002BD004F15C05287820B900216970204623
:1013A000FFF74FFD00F0ECF80646206881690A0758
:1013B00005D5FFF727FA801B0B28F6D30FE08169CC
:1013C00041F001018161FFF71DFA0646206881693D
:1013D000CA070CD4FFF716FA801B0B28F6D36868EF
:1013E00040F00100686003212970012070BD81690F
:1013F00041F00201816120685C49884202D1606845
:101400005B490860207C0128206881690CBF21F0BD
:10141000400141F040018161607C012820688169C0
:101420000CBF41F4804121F480418161A07C0128FE
:10143000206881690CBF21F4805141F480518161A1
:1014400021688A69A06822F4407202438A61206898
:10145000816921F0A40181612068016921F01001F6
:101460000161E068012804D12068816941F004012C
:1014700013E0B8B121680228886910D040F08000DC
:1014800088612068016941F010010161E06803286A
:1014900008D12068816941F02001816102E040F0BB
:1014A00020008861E169A0696269491E401E090245
:1014B00041EA4061206A401E01432068521E41EA11
:1014C0000241C161A168B1F5407F0FD1A06AE16A14
:1014D000401E491E40EA0120216B2268491E40EA55
:1014E0000110616A491E40EA0140D0602168D1F8CC
:1014F000C020E06B0243C1F8C02021681D4A1E488D
:10150000914208BF1D482064D1F88020636B22F40B
:10151000F81242EA0342C1F8802000F170016164D0
:101520002168D1F88020A36B22F0706242EA036246
:10153000C1F8802000F1B00100F5C472A164E2643A
:1015400000F5187100F51E7221656265014600F50F
:101550005472002301E041F8043B9142FBD3A365A0
:101560006B6001202870002070BD00000064004006
:10157000006500400068004000A4004050A7004003
:101580002068816921F010018161FFF73BB92DE9E5
:10159000F843064631680C6D486D0D6D0440486D8A
:1015A0000A6D0540486D0F6D104000F03809486D18
:1015B0000A6D0740486D10400A6D00F4602850061F
:1015C00004F4E05405F0070507F4710707D54A6DE8
:1015D000530604D540220A65304600F089F8306889
:1015E000016DCA050AD5416DCA0507D500F1D802BB
:1015F0004FF4807300F076F800F07BF82CB130687F
:1016000004652146304600F075F82DB13068056557
:101610002946304600F06FF8B9F1000F06D0306867
:10162000C0F850904946304600F066F83068016DC9
:101630008A0508D5416D8A0505D54FF4007101650D
:10164000304600F05AF83068016D0A0609D5416D40
:101650000A0606D500F1D402802300F043F800F01A
:101660004DF83068016D8A0408D5416D8A0405D5AE
:101670004FF400510165304600F041F83068016DCB
:101680000A0408D5416D0A0405D54FF400410165EF
:10169000304600F035F83068016D4A0409D5416DD7
:1016A0004A0406D54FF480410165306E40F0800059
:1016B0003066B8F1000F06D03068C0F8508041465F
:1016C000304600F01EF827B130680765316E0F43D1
:1016D0003766306E20B13046BDE8F24300F012B8F4
:1016E000BDE8F18311689268036511403046704788
:1016F0007047704770477047704770477047704732
:10170000704770477047000038B5040001D10120D0
:1017100032BD00F01FF818B900F018F8FFF7F5FB1C
:10172000FFE702206870211D206800F0FCF801200E
:101730002873A870E87028716871A871E871287220
:101740006872A872E8726870002032BD00212970AA
:101750002046704704F13C056878704710B5044690
:10176000206801698A0715D5C1688A0712D56FF00C
:101770000201016101222277806910F0030F2046E7
:1017800002D000F039F903E000F037F900F0C8F8B2
:1017900000202077206801694A0715D5C1684A07EB
:1017A00012D56FF00401016102222277806910F4E2
:1017B000407F204602D000F01FF903E000F01DF941
:1017C00000F0AEF800202077206801690A0715D5DF
:1017D000C1680A0712D56FF008010161042222775F
:1017E000C06910F0030F204602D000F005F903E0B5
:1017F00000F003F900F094F80020207720680169D8
:10180000CA0615D5C168CA0612D56FF0100101616C
:1018100008222277C06910F4407F204602D000F0F1
:10182000EBF803E000F0E9F800F07AF80020207708
:1018300020680169CA0708D5C168CA0705D56FF0D5
:1018400001010161204600F0D9F8206801690A060B
:1018500008D5C1680A0605D56FF0800101612046F0
:1018600000F0CDF820680169CA0508D5C1680A06EC
:1018700005D56FF480710161204600F0C1F8206841
:1018800001694A0608D5C1684A0605D56FF04001CE
:101890000161204600F0B5F8206801698A0608D584
:1018A000C1688A0605D56FF020010161204600F06D
:1018B000A9F820680169CA0208D5C168CA0205D51D
:1018C0006FF480110161204600F09DF820680169E5
:1018D0008A0208D5C1688A0205D56FF4001101613A
:1018E000204600F091F8206801694A0208D5C168D5
:1018F0004A0205D56FF480010161204600F085F8A9
:10190000206801690A020AD5C1680A0207D56FF486
:10191000000101612046BDE8104000F077B810BD1D
:10192000204600F074B82DE9F043DFF8C0C0D0F8CD
:1019300000E0DFF8A430DFF8A440DFF8A450DFF8BF
:10194000B060DFF8A070DFF8AC80DFF89C906045F5
:1019500018BFB0F1804F07D0484518BF404503D0AD
:10196000B84218BFB0420ED14A6860452EF0700EE2
:1019700018BFB0F1804F42EA0E0E0CD048451CBF94
:101980004045B84207D0A84218BFA04203D09842B1
:1019900018BFB04204D1CA682EF4407E42EA0E0E4F
:1019A0004A692EF0800E42EA0E02026060458A68A3
:1019B000C26218BFB8420A68826207D0A84218BF44
:1019C000A04203D0984218BFB04201D10969016317
:1019D00001224261BDE8F08300480140004401401B
:1019E000004001400034014000040040002C014050
:1019F0000050014000080040704770477047704732
:101A0000704770477047704770477047704770471E
:101A10002DE9FC4705464FF000082868DFF86062B2
:101A2000DFF86072010353D5F06CC100C1460AD4DF
:101A3000F06C40F08050F0644FF00109F06C00F061
:101A4000805000900098DFF84042206840F4807099
:101A50002060FEF7D7FE82462068C10506D4FEF757
:101A6000D1FEA0EB0A000328F6D321E0386810F479
:101A700040701CBFE96C88420BD03868396841F46B
:101A80008031396020F440703A6822F480323A6044
:101A90003860C0070FD5FEF7B5FE044638688107E9
:101AA00009D4FEF7AFFE001B41F289318842F5D31D
:101AB0004FF0030805E03968E86C21F440710143F8
:101AC0003960B9F1000F03D0F06C20F08050F06461
:101AD0002878C10705D5F26F6868920840EA82024B
:101AE000F2672978880705D5F16FA86821F00C0105
:101AF0000143F1672978480705D5F16FE86821F0BF
:101B000030010143F1672978080705D5F16F28698D
:101B100021F0C0010143F1672978C80605D5F16FAE
:101B2000686921F440710143F1672978880605D579
:101B3000F16FA86921F440610143F16729784806F3
:101B400005D5F16FE86921F440510143F167297827
:101B5000080605D5F16F286A21F440410143F16779
:101B60002968C80505D5F16F686A21F44031014341
:101B7000F1672968880505D5F16FA86A21F440212D
:101B80000143F167296848050AD5F16FE86A21F435
:101B900040110143F167E96AB1F5801F00F069F86F
:101BA000296808050AD5F16F286B21F4400101432B
:101BB000F167296BB1F5800F00F05BF82968C80464
:101BC0000AD5F16F686B21F040710143F167696BD1
:101BD000B1F1807F00F04DF82968880408D5F16FD5
:101BE000A86B21F040610143F167A96B00F03FF859
:101BF0002968480408D5F16FE86B21F04061014382
:101C0000F167E96B00F033F8296808040AD5F16F31
:101C1000286C21F040510143F167296CB1F1805FDC
:101C200000F01FF82968C8030AD5F16F686C21F02D
:101C300040410143F167696CB1F1804F00F011F848
:101C4000296848030AD5F968A86C21F440110143BA
:101C5000F960A96CB1F5001F00F00BF84046BDE833
:101C6000F68703D1306840F4803030607047B1F1BE
:101C7000006F03D1306840F480103060704700007E
:101C80000C100240901002400070004070B586B009
:101C900000F02CF900F0DCF81422002101A8FFF775
:101CA00035FB6448644D016841F0040101604FF464
:101CB0000054026802F00402009205F184060099C3
:101CC000026842F020020260036803F020030093E0
:101CD0000099026842F001020260036803F0010308
:101CE00000930099026842F002020260002200683C
:101CF00000F002000090202100984FF09040FFF784
:101D0000E6FA4E49029100220392019401A94C483F
:101D1000FFF712FA20210191012200210391049181
:101D2000029201A94FF09040FFF706FA002200212D
:101D30002820FEF7A9FD2820FEF7C4FD414868666B
:101D40004FF4E1310020E86628676867E867306093
:101D50007060A9664FF480500C213022F061A967B1
:101D6000B260346205F16400FEF7D8FD08B100F0FE
:101D7000BAF8002105F1640000F0E6F808B100F0BF
:101D8000B2F8002105F1640000F0E9F808B100F0B4
:101D9000AAF805F1640000F0B9F808B100F0A3F862
:101DA000294828600021042068616960E9603F20BB
:101DB0000121E86129746974042000216862A97412
:101DC0000E201021E862A96129621C2005216863A8
:101DD000A962296300204FF440720821E863AA60D9
:101DE000A9632846FFF7D2FA08B100F07CF80C226C
:101DF00000216846FFF78AFA14483067A921716705
:101E00000020B0676321C5F80C01F16705F1F40407
:101E10002046FFF779FC08B100F065F80021009139
:101E200002912046694600F0EDF808B100F05BF839
:101E3000FEE700004C1002401000002000001110CE
:101E4000000800480080004000640040001000408E
:101E500000B5A7B03822002105A8FFF757FA1422D1
:101E600000216846FFF752FA5022002113A8FFF71D
:101E70004DFA0020FFF708F94FF480720892022112
:101E8000022205910C920D924021042209910E929A
:101E9000552102220F9110921192129205A8FEF77D
:101EA0009BF908B100F01FF80F2003210090019169
:101EB000002202920392049204216846FEF76DFB11
:101EC00008B172B6FEE74FF48150139000214FF035
:101ED00000721991209213A8FFF79AFD08B172B60B
:101EE000FEE727B000BD72B6FEE70000032010B584
:101EF000FEF7BDFC0020FEF78BFC0024002814BF79
:101F00000124FEF787FF204610BD000010B500F148
:101F100080010A78012A01D1022010BD01220A7035
:101F200024234B600268136814686408640014601A
:101F30000022426623F000530068036020224A60BA
:101F400000230B70002010BD70B500F01FF801D108
:101F5000022070BD00F020F822F0604209E070B568
:101F600000F014F801D1022070BD00F015F822F045
:101F7000606211438160204600F01CF82068066012
:101F80002021696000222A70002070BD044604F1FF
:101F900080052878012870470120287024226A6073
:101FA0002068066802685208520002602068826851
:101FB0007047000030B5416E11B90121012214E0D3
:101FC000016800BF0BA48A68D1F808100BA3520E59
:101FD00002F00702490F655CA45C595C9A5CED0055
:101FE000E40095FBF1F194FBF2F26830418002804D
:101FF00030BD0000010101030701000008040204D4
:10200000080101012DE9F04300F13C052A78012A7D
:1020100008BF022039D001222A7002236B70D0F849
:1020200000E0DFF86C90DEF80470DFF87080DFF815
:1020300064C0DEF80860CE451CBFE645C64503D146
:102040004C6827F470072743154B0A681F40174355
:10205000CEF8047002684A4518BFB2F1804F0BD029
:102060000D4882421CBF0F4B9A4205D062451EBFED
:102070000D488242424504D1886826F08006064316
:1020800096600121697000202870BDE8F08300008F
:10209000002C014000340140000400400050014089
:1020A0008FFFFFFD000800400040014030B40025D4
:1020B00012E050F8042BD30744BF4A44521E091FB4
:1020C000042942F8045BFAD213468C0744BF1580FA
:1020D0009B1CC90748BF1D7050F8041B0029E8D19C
:1020E00030BC7047FEE7FEE7FEE7FEE7FEE770471D
:1020F0007047704700F00EB80448FFF748BA4FF435
:102100000050FFF7E9B80248FFF728BB1000002095
:102110000401002002490A68886882180A60704732
:102120000000002010B5074979441831064C7C4462
:10213000163404E00A68081D114488470146A1428C
:10214000F8D110BD2C0000004C0000004EF6885164
:10215000CEF20001086840F470000860BFF34F8FB2
:10216000BFF36F8F4FF00070E1EE100A7047000070
:102170003DFFFFFF400100001000002000000000B4
:10218000DFEEFFFF10000000A000000000000020B4
:10219000000000000248016841F4700101607047CE
:1021A00088ED00E0000000000000000001020304D0
:1021B0000607080900F00DF8002801D0FFF7B2FF6C
:1021C000AFF300800020AFF30080FFF75FFD00F069
:1021D00002F80120704700F001B8000007463846B9
:1021E00000F002F8FBE7000080B5AFF30080024A80
:1021F00011001820ABBEFBE726000200054801468F
:1022000003B4684680F30988AFF30080FFF79EFFB0
:10221000FFF7D0FFA5EDF5FE0148804701480047D4
:1022200095210008FD2100080000000010000000BA
:10223000010000000024F40000000000010203047B
:10224000FFF7FEBFFFF7FEBFFFF7FEBFFFF7FEBFC2
:10225000FFF7FEBFFFF7FEBFFFF7FEBFFFF7FEBFB2
:10226000FFF7FEBFFFF7FEBFFFF7FEBFFFF7FEBFA2
:10227000FFF7FEBFFFF7FEBFFFF7FEBFFFF7FEBF92
:10228000FFF7FEBFFFF7FEBFFFF7FEBFFFF7FEBF82
:10229000FFF7FEBFFFF7FEBFFFF7FEBFFFF7FEBF72
:1022A000FFF7FEBFFFF7FEBFFFF7FEBFFFF7FEBF62
:1022B000FFF7FEBFFFF7FEBFFFF7FEBFFFF7FEBF52
:1022C000FFF7FEBFFFF7FEBFFFF7FEBFFFF7FEBF42
:1022D000FFF7FEBFFFF7FEBFFFF7FEBFFFF7FEBF32
:1022E000FFF7FEBFFFF7FEBFFFF7FEBFFFF7FEBF22
:1022F000FFF7FEBFFFF7FEBFFFF7FEBFFFF7FEBF12
:10230000FFF7FEBFFFF7FEBFFFF7FEBFFFF7FEBF01
:10231000FFF7FEBFFFF7FEBFFFF7FEBFFFF7FEBFF1
:10232000FFF7FEBFFFF7FEBFFFF7FEBFFFF7FEBFE1
:10233000FFF7FEBFFFF7FEBFFFF7FEBFFFF7FEBFD1
:10234000FFF7FEBFFFF7FEBFFFF7FEBFFFF7FEBFC1
:10235000FFF7FEBFFFF7FEBFFFF7FEBFFFF7FEBFB1
:10236000FFF7FEBFFFF7FEBFFFF7FEBFFFF7FEBFA1
:10237000FFF7FEBFFFF7FEBFFFF7FEBFFFF7FEBF91
:04000005080021FDD1
:00000001FF
